{"abi":[{"type":"constructor","inputs":[{"name":"_inscriptionVerifier","type":"address","internalType":"contract IVerifier"},{"name":"_votingVerifier","type":"address","internalType":"contract IVerifier"},{"name":"_numberOfVoters","type":"uint256","internalType":"uint256"},{"name":"generator","type":"bytes32","internalType":"bytes32"}],"stateMutability":"nonpayable"},{"type":"function","name":"enscribeVoter","inputs":[{"name":"proof","type":"bytes","internalType":"bytes"},{"name":"encrypted_random_value","type":"bytes32","internalType":"bytes32"}],"outputs":[],"stateMutability":"nonpayable"},{"type":"function","name":"evaluateFinalVote","inputs":[],"outputs":[],"stateMutability":"nonpayable"},{"type":"function","name":"getDecryptionValueByVoterIndex","inputs":[{"name":"voterIndex","type":"uint256","internalType":"uint256"}],"outputs":[{"name":"","type":"uint256","internalType":"uint256"}],"stateMutability":"view"},{"type":"function","name":"getRegisteredVoters","inputs":[],"outputs":[{"name":"voters","type":"address[]","internalType":"address[]"},{"name":"hasVoted","type":"bool[]","internalType":"bool[]"}],"stateMutability":"view"},{"type":"function","name":"get_finalVote","inputs":[],"outputs":[{"name":"","type":"bool","internalType":"bool"}],"stateMutability":"view"},{"type":"function","name":"owner","inputs":[],"outputs":[{"name":"","type":"address","internalType":"address"}],"stateMutability":"view"},{"type":"function","name":"renounceOwnership","inputs":[],"outputs":[],"stateMutability":"nonpayable"},{"type":"function","name":"s_aggregated_division","inputs":[{"name":"","type":"uint256","internalType":"uint256"}],"outputs":[{"name":"","type":"uint256","internalType":"uint256"}],"stateMutability":"view"},{"type":"function","name":"s_aggregated_multiplication","inputs":[{"name":"","type":"uint256","internalType":"uint256"}],"outputs":[{"name":"","type":"uint256","internalType":"uint256"}],"stateMutability":"view"},{"type":"function","name":"s_decryption_shares","inputs":[{"name":"","type":"uint256","internalType":"uint256"}],"outputs":[{"name":"","type":"uint256","internalType":"uint256"}],"stateMutability":"view"},{"type":"function","name":"s_encrypted_random_values","inputs":[{"name":"","type":"address","internalType":"address"}],"outputs":[{"name":"","type":"bytes32","internalType":"bytes32"}],"stateMutability":"view"},{"type":"function","name":"s_encrypted_votes","inputs":[{"name":"","type":"uint256","internalType":"uint256"}],"outputs":[{"name":"","type":"bytes32","internalType":"bytes32"}],"stateMutability":"view"},{"type":"function","name":"s_enscribedVoters","inputs":[],"outputs":[{"name":"","type":"uint256","internalType":"uint256"}],"stateMutability":"view"},{"type":"function","name":"s_finalVote","inputs":[],"outputs":[{"name":"","type":"bool","internalType":"bool"}],"stateMutability":"view"},{"type":"function","name":"s_generator","inputs":[],"outputs":[{"name":"","type":"bytes32","internalType":"bytes32"}],"stateMutability":"view"},{"type":"function","name":"s_inscriptionVerifier","inputs":[],"outputs":[{"name":"","type":"address","internalType":"contract IVerifier"}],"stateMutability":"view"},{"type":"function","name":"s_maximalNumberOfVoters","inputs":[],"outputs":[{"name":"","type":"uint256","internalType":"uint256"}],"stateMutability":"view"},{"type":"function","name":"s_votedVoters","inputs":[],"outputs":[{"name":"","type":"uint256","internalType":"uint256"}],"stateMutability":"view"},{"type":"function","name":"s_voterIndex","inputs":[{"name":"","type":"address","internalType":"address"}],"outputs":[{"name":"","type":"uint256","internalType":"uint256"}],"stateMutability":"view"},{"type":"function","name":"s_voters","inputs":[{"name":"","type":"uint256","internalType":"uint256"}],"outputs":[{"name":"voterAddress","type":"address","internalType":"address"},{"name":"hasVoted","type":"bool","internalType":"bool"}],"stateMutability":"view"},{"type":"function","name":"s_votingVerifier","inputs":[],"outputs":[{"name":"","type":"address","internalType":"contract IVerifier"}],"stateMutability":"view"},{"type":"function","name":"s_yesVotes","inputs":[],"outputs":[{"name":"","type":"uint256","internalType":"uint256"}],"stateMutability":"view"},{"type":"function","name":"transferOwnership","inputs":[{"name":"newOwner","type":"address","internalType":"address"}],"outputs":[],"stateMutability":"nonpayable"},{"type":"function","name":"vote","inputs":[{"name":"proof","type":"bytes","internalType":"bytes"},{"name":"encrypted_vote","type":"bytes32","internalType":"bytes32"}],"outputs":[],"stateMutability":"nonpayable"},{"type":"event","name":"Inscription__ProofSucceeded","inputs":[{"name":"result","type":"bool","indexed":false,"internalType":"bool"}],"anonymous":false},{"type":"event","name":"Inscription__VoterEnscribed","inputs":[{"name":"voter","type":"address","indexed":false,"internalType":"address"},{"name":"voterIndex","type":"uint256","indexed":false,"internalType":"uint256"}],"anonymous":false},{"type":"event","name":"OwnershipTransferred","inputs":[{"name":"previousOwner","type":"address","indexed":true,"internalType":"address"},{"name":"newOwner","type":"address","indexed":true,"internalType":"address"}],"anonymous":false},{"type":"event","name":"Voting__ProofSucceeded","inputs":[{"name":"result","type":"bool","indexed":false,"internalType":"bool"}],"anonymous":false},{"type":"event","name":"Voting__Starting","inputs":[{"name":"","type":"uint256[]","indexed":false,"internalType":"uint256[]"}],"anonymous":false},{"type":"error","name":"Constructor__InvalidDeadline","inputs":[{"name":"currentTime","type":"uint256","internalType":"uint256"},{"name":"providedDeadline","type":"uint256","internalType":"uint256"}]},{"type":"error","name":"Inscription__Closed","inputs":[{"name":"currentTime","type":"uint256","internalType":"uint256"},{"name":"deadline","type":"uint256","internalType":"uint256"}]},{"type":"error","name":"Inscription__InvalidProof","inputs":[{"name":"voter","type":"address","internalType":"address"}]},{"type":"error","name":"Inscription__IsNotClosedYet","inputs":[{"name":"enscribedVoters","type":"uint256","internalType":"uint256"},{"name":"MaximalVoters","type":"uint256","internalType":"uint256"}]},{"type":"error","name":"OwnableInvalidOwner","inputs":[{"name":"owner","type":"address","internalType":"address"}]},{"type":"error","name":"OwnableUnauthorizedAccount","inputs":[{"name":"account","type":"address","internalType":"address"}]},{"type":"error","name":"Voter__InvalidIndex","inputs":[{"name":"voterIndex","type":"uint256","internalType":"uint256"},{"name":"maximalNumberOfVoters","type":"uint256","internalType":"uint256"}]},{"type":"error","name":"Voting__FailedToDecryptFinalVote","inputs":[]},{"type":"error","name":"Voting__InvalidProof","inputs":[{"name":"voter","type":"address","internalType":"address"}]},{"type":"error","name":"Voting__IsClosed","inputs":[]},{"type":"error","name":"Voting__IsNotFinalized","inputs":[]}],"bytecode":{"object":"0x60806040525f6005555f600755348015610017575f5ffd5b50604051611bab380380611bab83398101604081905261003691610191565b338061005b57604051631e4fbdf760e01b81525f600482015260240160405180910390fd5b6100648161011e565b50600180546001600160a01b038087166001600160a01b03199283161790925560028054928616929091169190911790556008829055600981905560405181907f30644e72e131a029b85045b68181585d2833e84879b9709143e1f593f0000001906100cf9061016d565b9182526020820152604001604051809103905ff0801580156100f3573d5f5f3e3d5ffd5b50600a80546001600160a01b0319166001600160a01b0392909216919091179055506101d692505050565b5f80546001600160a01b038381166001600160a01b0319831681178455604051919092169283917f8be0079c531659141344cd1fd0a4f28419497f9722a3daafe3b4186f6b6457e09190a35050565b610600806115ab83390190565b6001600160a01b038116811461018e575f5ffd5b50565b5f5f5f5f608085870312156101a4575f5ffd5b84516101af8161017a565b60208601519094506101c08161017a565b6040860151606090960151949790965092505050565b6113c8806101e35f395ff3fe608060405234801561000f575f5ffd5b5060043610610153575f3560e01c80639ecf9fc6116100bf578063ce1c241e11610079578063ce1c241e146102e3578063d8b1eefe146102ec578063f2fde38b146102f4578063fb33b6b414610307578063fc45581f1461030f578063fc4af5511461032e575f5ffd5b80639ecf9fc61461026a578063b73ee90b1461027d578063bee9e8ad146102a1578063c0e60208146102b4578063c7e40ab6146102c7578063c9e5518f146102d0575f5ffd5b806369e2be071161011057806369e2be071461020e5780636d0da3eb14610221578063715018a61461022a578063804786f1146102345780638da5cb5b1461024757806392e49aa014610257575f5ffd5b8063034cf04e146101575780631988d8771461017357806329db61f2146101a55780632bc4a6e7146101ae5780632f2fd57b146101c45780633131f1ce146101ef575b5f5ffd5b61016060095481565b6040519081526020015b60405180910390f35b6101866101813660046110bf565b610341565b604080516001600160a01b03909316835290151560208301520161016a565b61016060055481565b6101b6610374565b60405161016a9291906110d6565b6002546101d7906001600160a01b031681565b6040516001600160a01b03909116815260200161016a565b6101606101fd366004611161565b60046020525f908152604090205481565b61016061021c3660046110bf565b6104cc565b61016060035481565b6102326104eb565b005b6101606102423660046110bf565b6104fe565b5f546001600160a01b03166101d7565b61023261026536600461118e565b61050d565b6001546101d7906001600160a01b031681565b60025461029190600160a01b900460ff1681565b604051901515815260200161016a565b6102326102af36600461118e565b6105d0565b6101606102c23660046110bf565b6106ee565b61016060075481565b6101606102de3660046110bf565b6106fd565b61016060085481565b61023261078a565b610232610302366004611161565b610848565b610291610882565b61016061031d366004611161565b600f6020525f908152604090205481565b61016061033c3660046110bf565b6108ec565b600e8181548110610350575f80fd5b5f918252602090912001546001600160a01b0381169150600160a01b900460ff1682565b600e54606090819067ffffffffffffffff81111561039457610394611200565b6040519080825280602002602001820160405280156103bd578160200160208202803683370190505b50600e5490925067ffffffffffffffff8111156103dc576103dc611200565b604051908082528060200260200182016040528015610405578160200160208202803683370190505b5090505f5b600e548110156104c757600e818154811061042757610427611214565b5f9182526020909120015483516001600160a01b039091169084908390811061045257610452611214565b60200260200101906001600160a01b031690816001600160a01b031681525050600e818154811061048557610485611214565b905f5260205f20015f0160149054906101000a900460ff168282815181106104af576104af611214565b9115156020928302919091019091015260010161040a565b509091565b600681815481106104db575f80fd5b5f91825260209091200154905081565b6104f36108fb565b6104fc5f610927565b565b600c81815481106104db575f80fd5b610518838383610976565b156105cb5760068054600181810183555f9283527ff652222313e28459528d920b65115c16c04f3efc82aaedc97be59f3f377c0d3f909101839055600780549192909161056690849061123c565b9091555050335f908152600f6020526040902054600e8054600191908390811061059257610592611214565b5f9182526020909120018054911515600160a01b0260ff60a01b19909216919091179055600754600554036105c9576105c961078a565b505b505050565b6105db838383610ace565b156105cb57335f908152600460205260408120829055600580546001929061060490849061123c565b9091555050604080518082019091523381525f60208201818152600e8054600181810183559190935292517fbb7b4a454dc3493923482f07822329ed19e8244eff582cc204f8554c3620c3fd909201805491511515600160a01b026001600160a81b03199092166001600160a01b03939093169290921717905560055461068b9190611255565b335f818152600f6020908152604091829020939093556005548151928352928201929092527fd0d43ef28709157183dd781abc0449f405db8b4182b2f99c72eeaa9816ce04dc910160405180910390a1600854600554036105cb576105cb610c3b565b600b81815481106104db575f80fd5b5f600854600554101561073757600554600854604051634c7424ed60e11b8152600481019290925260248201526044015b60405180910390fd5b60085482106107675760085460405163d541385760e01b815261072e918491600401918252602082015260400190565b600d828154811061077a5761077a611214565b905f5260205f2001549050919050565b60015f5b60085481101561083b57600a54600680546001600160a01b039092169163805be31d918591859081106107c3576107c3611214565b5f918252602090912001546040516001600160e01b031960e085901b16815260048101929092526024820152604401602060405180830381865afa15801561080d573d5f5f3e3d5ffd5b505050506040513d601f19601f820116820180604052508101906108319190611268565b915060010161078e565b5061084581610fd7565b50565b6108506108fb565b6001600160a01b03811661087957604051631e4fbdf760e01b81525f600482015260240161072e565b61084581610927565b5f60085460055410156108b757600554600854604051634c7424ed60e11b81526004810192909252602482015260440161072e565b600554600754146108db5760405163698a440760e01b815260040160405180910390fd5b50600254600160a01b900460ff1690565b600d81815481106104db575f80fd5b5f546001600160a01b031633146104fc5760405163118cdaa760e01b815233600482015260240161072e565b5f80546001600160a01b038381166001600160a01b0319831681178455604051919092169283917f8be0079c531659141344cd1fd0a4f28419497f9722a3daafe3b4186f6b6457e09190a35050565b5f6005546007541061099b5760405163beda529960e01b815260040160405180910390fd5b6040805160028082526060820183525f92602083019080368337019050509050600954815f815181106109d0576109d0611214565b60200260200101818152505082816001815181106109f0576109f0611214565b6020908102919091010152600254604051633a94343960e21b81525f916001600160a01b03169063ea50d0e490610a2f9089908990879060040161127f565b602060405180830381865afa158015610a4a573d5f5f3e3d5ffd5b505050506040513d601f19601f82011682018060405250810190610a6e91906112f7565b905080610a905760405163dcd5e6cd60e01b815233600482015260240161072e565b60405181151581527f329f535c7a5fc722b1d9afbc9c9e751cc20360f8153125977bbd03a91b04480f9060200160405180910390a195945050505050565b5f60085460055410610b025760055460085460405163c3c7242560e01b81526004810192909252602482015260440161072e565b6040805160028082526060820183525f92602083019080368337019050509050600954815f81518110610b3757610b37611214565b6020026020010181815250508281600181518110610b5757610b57611214565b6020908102919091010152600154604051633a94343960e21b81525f916001600160a01b03169063ea50d0e490610b969089908990879060040161127f565b602060405180830381865afa158015610bb1573d5f5f3e3d5ffd5b505050506040513d601f19601f82011682018060405250810190610bd591906112f7565b90508015610c175760405181151581527f505ad7e6904cb0d1b53ad7152f1363565892d77d6bbae25ae333559e9e5584869060200160405180910390a1610c32565b6040516360c1a2bb60e11b815233600482015260240161072e565b95945050505050565b60055460085414610c6e57600754600554604051634c7424ed60e11b81526004810192909252602482015260440161072e565b5f600e5f81548110610c8257610c82611214565b5f9182526020808320909101546001600160a01b031680835260049091526040822054600b805460018181018355919094527f0175b7a638427703f0dbe7bb9bbf987a2551717b34e79f33b5b1008d1fa01db9909301819055909250905b600e54811015610de0575f600e8281548110610cfe57610cfe611214565b5f9182526020808320909101546001600160a01b039081168084526004909252604090922054600a5491935091600b911663805be31d82610d40600188611255565b81548110610d5057610d50611214565b905f5260205f200154846040518363ffffffff1660e01b8152600401610d80929190918252602082015260400190565b602060405180830381865afa158015610d9b573d5f5f3e3d5ffd5b505050506040513d601f19601f82011682018060405250810190610dbf9190611268565b8154600181810184555f93845260209093200155929092019150610ce09050565b505f5b600e54811015610ebf57600e545f90600190610e00908490611255565b610e0a9190611255565b600a54600b8054929350600c926001600160a01b0390921691630366956e919085908110610e3a57610e3a611214565b905f5260205f2001546040518263ffffffff1660e01b8152600401610e6191815260200190565b602060405180830381865afa158015610e7c573d5f5f3e3d5ffd5b505050506040513d601f19601f82011682018060405250810190610ea09190611268565b8154600181810184555f93845260209093200155919091019050610de3565b505f5b600e54811015610f9a57600a54600b8054600d926001600160a01b03169163805be31d9185908110610ef657610ef6611214565b905f5260205f200154600c8581548110610f1257610f12611214565b905f5260205f2001546040518363ffffffff1660e01b8152600401610f41929190918252602082015260400190565b602060405180830381865afa158015610f5c573d5f5f3e3d5ffd5b505050506040513d601f19601f82011682018060405250810190610f809190611268565b8154600181810184555f9384526020909320015501610ec2565b507ffeca226021d6e60f7432aaad1bac7105185f26e93e170f2242d756de3d4ef95e600d604051610fcb9190611316565b60405180910390a15050565b60015f5b60085481116110a55782820361101b576003819055600854610fff9060029061135b565b6002805460ff60a01b191691909211600160a01b021790555050565b600a5460095460405163805be31d60e01b81526004810185905260248101919091526001600160a01b039091169063805be31d90604401602060405180830381865afa15801561106d573d5f5f3e3d5ffd5b505050506040513d601f19601f820116820180604052508101906110919190611268565b91508061109d8161137a565b915050610fdb565b5060405163647508e560e11b815260040160405180910390fd5b5f602082840312156110cf575f5ffd5b5035919050565b604080825283519082018190525f9060208501906060840190835b818110156111185783516001600160a01b03168352602093840193909201916001016110f1565b5050838103602080860191909152855180835291810192508501905f5b818110156111555782511515845260209384019390920191600101611135565b50919695505050505050565b5f60208284031215611171575f5ffd5b81356001600160a01b0381168114611187575f5ffd5b9392505050565b5f5f5f604084860312156111a0575f5ffd5b833567ffffffffffffffff8111156111b6575f5ffd5b8401601f810186136111c6575f5ffd5b803567ffffffffffffffff8111156111dc575f5ffd5b8660208284010111156111ed575f5ffd5b6020918201979096509401359392505050565b634e487b7160e01b5f52604160045260245ffd5b634e487b7160e01b5f52603260045260245ffd5b634e487b7160e01b5f52601160045260245ffd5b8082018082111561124f5761124f611228565b92915050565b8181038181111561124f5761124f611228565b5f60208284031215611278575f5ffd5b5051919050565b60408152826040820152828460608301375f606084830101525f601f19601f85011682016060810160608483030160208501528085518083526080840191506020870193505f92505b808310156112eb57835182526020820191506020840193506001830192506112c8565b50979650505050505050565b5f60208284031215611307575f5ffd5b81518015158114611187575f5ffd5b602080825282548282018190525f848152918220906040840190835b81811015611350578354835260019384019360209093019201611332565b509095945050505050565b5f8261137557634e487b7160e01b5f52601260045260245ffd5b500490565b5f6001820161138b5761138b611228565b506001019056fea26469706673582212202cf40e7736af0a9c8bcf062ee177629669792d16b1e8156d8128288c2d1f117464736f6c634300081e003360c060405234801561000f575f5ffd5b5060405161060038038061060083398101604081905261002e916100de565b5f81116100825760405162461bcd60e51b815260206004820152601360248201527f4d6f64756c7573206d757374206265203e20300000000000000000000000000060448201526064015b60405180910390fd5b5f8211801561009057508082105b6100d05760405162461bcd60e51b815260206004820152601160248201527024b73b30b634b21033b2b732b930ba37b960791b6044820152606401610079565b60809190915260a052610100565b5f5f604083850312156100ef575f5ffd5b505080516020909101519092909150565b60805160a05161049a6101665f395f818161013901528181610168015281816101d701528181610204015281816102350152818161026001528181610290015281816102de0152818161031b0152818161035d015261039101525f60ec015261049a5ff3fe608060405234801561000f575f5ffd5b5060043610610085575f3560e01c80637afa1eed116100585780637afa1eed146100e7578063805be31d1461010e578063e01140b814610121578063ff4b040014610134575f5ffd5b80630366956e1461008957806341692bbb146100ae5780636eeb86dd146100c157806376f26c26146100d4575b5f5ffd5b61009c6100973660046103d4565b61015b565b60405190815260200160405180910390f35b61009c6100bc3660046103eb565b610201565b61009c6100cf3660046103eb565b61028d565b61009c6100e23660046103eb565b6102c6565b61009c7f000000000000000000000000000000000000000000000000000000000000000081565b61009c61011c3660046103eb565b6102db565b61009c61012f3660046103eb565b610314565b61009c7f000000000000000000000000000000000000000000000000000000000000000081565b5f811580159061018a57507f000000000000000000000000000000000000000000000000000000000000000082105b6101cc5760405162461bcd60e51b815260206004820152600f60248201526e496e76616c696420696e766572736560881b604482015260640160405180910390fd5b6101fb8261012f60027f000000000000000000000000000000000000000000000000000000000000000061040b565b92915050565b5f7f0000000000000000000000000000000000000000000000000000000000000000806102305761023061042a565b61025a7f00000000000000000000000000000000000000000000000000000000000000008461043e565b610284907f000000000000000000000000000000000000000000000000000000000000000061040b565b84089392505050565b5f7f0000000000000000000000000000000000000000000000000000000000000000806102bc576102bc61042a565b8284089392505050565b5f6102d48361011c8461015b565b9392505050565b5f7f00000000000000000000000000000000000000000000000000000000000000008061030a5761030a61042a565b8284099392505050565b60016103407f00000000000000000000000000000000000000000000000000000000000000008461043e565b92505b81156101fb5761035460028361043e565b60010361038f577f0000000000000000000000000000000000000000000000000000000000000000806103895761038961042a565b83820990505b7f0000000000000000000000000000000000000000000000000000000000000000806103bd576103bd61042a565b83840992506103cd600283610451565b9150610343565b5f602082840312156103e4575f5ffd5b5035919050565b5f5f604083850312156103fc575f5ffd5b50508035926020909101359150565b818103818111156101fb57634e487b7160e01b5f52601160045260245ffd5b634e487b7160e01b5f52601260045260245ffd5b5f8261044c5761044c61042a565b500690565b5f8261045f5761045f61042a565b50049056fea26469706673582212206d1a93af8bcfec1167382db727692e2e4310f341ebe1e6c73af0117de415c8ce64736f6c634300081e0033","linkReferences":{}},"methodIdentifiers":{"enscribeVoter(bytes,bytes32)":"bee9e8ad","evaluateFinalVote()":"d8b1eefe","getDecryptionValueByVoterIndex(uint256)":"c9e5518f","getRegisteredVoters()":"2bc4a6e7","get_finalVote()":"fb33b6b4","owner()":"8da5cb5b","renounceOwnership()":"715018a6","s_aggregated_division(uint256)":"804786f1","s_aggregated_multiplication(uint256)":"c0e60208","s_decryption_shares(uint256)":"fc4af551","s_encrypted_random_values(address)":"3131f1ce","s_encrypted_votes(uint256)":"69e2be07","s_enscribedVoters()":"29db61f2","s_finalVote()":"b73ee90b","s_generator()":"034cf04e","s_inscriptionVerifier()":"9ecf9fc6","s_maximalNumberOfVoters()":"ce1c241e","s_votedVoters()":"c7e40ab6","s_voterIndex(address)":"fc45581f","s_voters(uint256)":"1988d877","s_votingVerifier()":"2f2fd57b","s_yesVotes()":"6d0da3eb","transferOwnership(address)":"f2fde38b","vote(bytes,bytes32)":"92e49aa0"},"id":28}