{"abi":[{"type":"constructor","inputs":[{"name":"_inscriptionVerifier","type":"address","internalType":"contract IVerifier"},{"name":"_votingVerifier","type":"address","internalType":"contract IVerifier"},{"name":"_generator","type":"bytes32","internalType":"bytes32"}],"stateMutability":"nonpayable"},{"type":"function","name":"createVote","inputs":[{"name":"name","type":"string","internalType":"string"},{"name":"description","type":"string","internalType":"string"},{"name":"numberOfVoters","type":"uint256","internalType":"uint256"}],"outputs":[{"name":"voteAddr","type":"address","internalType":"address"},{"name":"id","type":"uint256","internalType":"uint256"}],"stateMutability":"nonpayable"},{"type":"function","name":"defaultInscriptionVerifier","inputs":[],"outputs":[{"name":"","type":"address","internalType":"contract IVerifier"}],"stateMutability":"view"},{"type":"function","name":"defaultVotingVerifier","inputs":[],"outputs":[{"name":"","type":"address","internalType":"contract IVerifier"}],"stateMutability":"view"},{"type":"function","name":"generator","inputs":[],"outputs":[{"name":"","type":"bytes32","internalType":"bytes32"}],"stateMutability":"view"},{"type":"function","name":"getById","inputs":[{"name":"id","type":"uint256","internalType":"uint256"}],"outputs":[{"name":"","type":"address","internalType":"address"}],"stateMutability":"view"},{"type":"function","name":"getMetadata","inputs":[{"name":"id","type":"uint256","internalType":"uint256"}],"outputs":[{"name":"name","type":"string","internalType":"string"},{"name":"description","type":"string","internalType":"string"},{"name":"numberOfVoters","type":"uint256","internalType":"uint256"}],"stateMutability":"view"},{"type":"function","name":"listVotes","inputs":[],"outputs":[{"name":"","type":"address[]","internalType":"address[]"}],"stateMutability":"view"},{"type":"function","name":"owner","inputs":[],"outputs":[{"name":"","type":"address","internalType":"address"}],"stateMutability":"view"},{"type":"function","name":"renounceOwnership","inputs":[],"outputs":[],"stateMutability":"nonpayable"},{"type":"function","name":"setDefaultVerifiers","inputs":[{"name":"_inscriptionVerifier","type":"address","internalType":"contract IVerifier"},{"name":"_votingVerifier","type":"address","internalType":"contract IVerifier"}],"outputs":[],"stateMutability":"nonpayable"},{"type":"function","name":"totalVotes","inputs":[],"outputs":[{"name":"","type":"uint256","internalType":"uint256"}],"stateMutability":"view"},{"type":"function","name":"transferOwnership","inputs":[{"name":"newOwner","type":"address","internalType":"address"}],"outputs":[],"stateMutability":"nonpayable"},{"type":"event","name":"OwnershipTransferred","inputs":[{"name":"previousOwner","type":"address","indexed":true,"internalType":"address"},{"name":"newOwner","type":"address","indexed":true,"internalType":"address"}],"anonymous":false},{"type":"event","name":"VoteCreated","inputs":[{"name":"id","type":"uint256","indexed":true,"internalType":"uint256"},{"name":"vote","type":"address","indexed":true,"internalType":"address"},{"name":"numberOfVoters","type":"uint256","indexed":false,"internalType":"uint256"},{"name":"generator","type":"bytes32","indexed":false,"internalType":"bytes32"},{"name":"name","type":"string","indexed":false,"internalType":"string"},{"name":"description","type":"string","indexed":false,"internalType":"string"}],"anonymous":false},{"type":"error","name":"OwnableInvalidOwner","inputs":[{"name":"owner","type":"address","internalType":"address"}]},{"type":"error","name":"OwnableUnauthorizedAccount","inputs":[{"name":"account","type":"address","internalType":"address"}]},{"type":"error","name":"Vote__InvalidVoteId","inputs":[{"name":"voteId","type":"uint256","internalType":"uint256"},{"name":"totalVotes","type":"uint256","internalType":"uint256"}]}],"bytecode":{"object":"0x608060405234801561000f575f5ffd5b5060405161276738038061276783398101604081905261002e916100fb565b338061005357604051631e4fbdf760e01b81525f600482015260240160405180910390fd5b61005c81610095565b50600180546001600160a01b039485166001600160a01b031991821617909155600280549390941692169190911790915560035561013b565b5f80546001600160a01b038381166001600160a01b0319831681178455604051919092169283917f8be0079c531659141344cd1fd0a4f28419497f9722a3daafe3b4186f6b6457e09190a35050565b6001600160a01b03811681146100f8575f5ffd5b50565b5f5f5f6060848603121561010d575f5ffd5b8351610118816100e4565b6020850151909350610129816100e4565b80925050604084015190509250925092565b61261f806101485f395ff3fe608060405234801561000f575f5ffd5b50600436106100b1575f3560e01c8063937cabed1161006e578063937cabed1461012d578063a574cea41461015f578063db26c4f014610181578063ecb9ece814610196578063f2fde38b146101a9578063f4f4d237146101bc575f5ffd5b80630d15fd77146100b5578063457b3c53146100cc578063715018a6146100e15780637afa1eed146100e957806381b48bb3146100f25780638da5cb5b1461011d575b5f5ffd5b6004545b6040519081526020015b60405180910390f35b6100df6100da366004610724565b6101cf565b005b6100df610205565b6100b960035481565b600154610105906001600160a01b031681565b6040516001600160a01b0390911681526020016100c3565b5f546001600160a01b0316610105565b61014061013b3660046107a0565b610218565b604080516001600160a01b0390931683526020830191909152016100c3565b61017261016d366004610813565b6103e3565b6040516100c393929190610858565b61018961058f565b6040516100c3919061088d565b600254610105906001600160a01b031681565b6100df6101b73660046108d8565b6105ef565b6101056101ca366004610813565b61062c565b6101d7610688565b600180546001600160a01b039384166001600160a01b03199182161790915560028054929093169116179055565b61020d610688565b6102165f6106b4565b565b6001546002546003546040515f93849384936001600160a01b03928316939190921691879161024690610703565b6001600160a01b03948516815293909216602084015260408301526060820152608001604051809103905ff080158015610282573d5f5f3e3d5ffd5b506004805460018082019092557f8a35acfbc15ff81a39ae7d344fd709f28e8600b4aa8c65c6b64bfe7fe36bd19b0180546001600160a01b0319166001600160a01b0384161790556005805491820181555f529093508391507f036b6384b5eca791c62761152d0c79bb0604c104a5fb6f4eb0703f3154bb3db001610308888a83610992565b50600680546001810182555f919091527ff652222313e28459528d920b65115c16c04f3efc82aaedc97be59f3f377c0d3f01610345868883610992565b5060078054600181810183555f929092527fa66cc928b5edb82af9bd49922954155ab7b0942694bea4ce44661d9a8736c688018590556004546103889190610a4c565b9150826001600160a01b0316827f34ac4a0e750ac429ee9b5eb356507ade3dec214b675bc40c7f0ec88891d65424866003548c8c8c8c6040516103d096959493929190610a99565b60405180910390a3509550959350505050565b6060805f600480549050841061041c5760048054604051631ad38f2f60e11b815291820186905260248201526044015b60405180910390fd5b6005848154811061042f5761042f610ad8565b905f5260205f20016006858154811061044a5761044a610ad8565b905f5260205f20016007868154811061046557610465610ad8565b905f5260205f20015482805461047a9061090e565b80601f01602080910402602001604051908101604052809291908181526020018280546104a69061090e565b80156104f15780601f106104c8576101008083540402835291602001916104f1565b820191905f5260205f20905b8154815290600101906020018083116104d457829003601f168201915b505050505092508180546105049061090e565b80601f01602080910402602001604051908101604052809291908181526020018280546105309061090e565b801561057b5780601f106105525761010080835404028352916020019161057b565b820191905f5260205f20905b81548152906001019060200180831161055e57829003601f168201915b505050505091509250925092509193909250565b606060048054806020026020016040519081016040528092919081815260200182805480156105e557602002820191905f5260205f20905b81546001600160a01b031681526001909101906020018083116105c7575b5050505050905090565b6105f7610688565b6001600160a01b03811661062057604051631e4fbdf760e01b81525f6004820152602401610413565b610629816106b4565b50565b6004545f90821061065b5760048054604051631ad38f2f60e11b81529182018490526024820152604401610413565b6004828154811061066e5761066e610ad8565b5f918252602090912001546001600160a01b031692915050565b5f546001600160a01b031633146102165760405163118cdaa760e01b8152336004820152602401610413565b5f80546001600160a01b038381166001600160a01b0319831681178455604051919092169283917f8be0079c531659141344cd1fd0a4f28419497f9722a3daafe3b4186f6b6457e09190a35050565b611afd80610aed83390190565b6001600160a01b0381168114610629575f5ffd5b5f5f60408385031215610735575f5ffd5b823561074081610710565b9150602083013561075081610710565b809150509250929050565b5f5f83601f84011261076b575f5ffd5b50813567ffffffffffffffff811115610782575f5ffd5b602083019150836020828501011115610799575f5ffd5b9250929050565b5f5f5f5f5f606086880312156107b4575f5ffd5b853567ffffffffffffffff8111156107ca575f5ffd5b6107d68882890161075b565b909650945050602086013567ffffffffffffffff8111156107f5575f5ffd5b6108018882890161075b565b96999598509660400135949350505050565b5f60208284031215610823575f5ffd5b5035919050565b5f81518084528060208401602086015e5f602082860101526020601f19601f83011685010191505092915050565b606081525f61086a606083018661082a565b828103602084015261087c818661082a565b915050826040830152949350505050565b602080825282518282018190525f918401906040840190835b818110156108cd5783516001600160a01b03168352602093840193909201916001016108a6565b509095945050505050565b5f602082840312156108e8575f5ffd5b81356108f381610710565b9392505050565b634e487b7160e01b5f52604160045260245ffd5b600181811c9082168061092257607f821691505b60208210810361094057634e487b7160e01b5f52602260045260245ffd5b50919050565b601f82111561098d57805f5260205f20601f840160051c8101602085101561096b5750805b601f840160051c820191505b8181101561098a575f8155600101610977565b50505b505050565b67ffffffffffffffff8311156109aa576109aa6108fa565b6109be836109b8835461090e565b83610946565b5f601f8411600181146109ef575f85156109d85750838201355b5f19600387901b1c1916600186901b17835561098a565b5f83815260208120601f198716915b82811015610a1e57868501358255602094850194600190920191016109fe565b5086821015610a3a575f1960f88860031b161c19848701351681555b505060018560011b0183555050505050565b81810381811115610a6b57634e487b7160e01b5f52601160045260245ffd5b92915050565b81835281816020850137505f828201602090810191909152601f909101601f19169091010190565b868152856020820152608060408201525f610ab8608083018688610a71565b8281036060840152610acb818587610a71565b9998505050505050505050565b634e487b7160e01b5f52603260045260245ffdfe60806040525f6005555f600755348015610017575f5ffd5b50604051611afd380380611afd83398101604081905261003691610191565b338061005b57604051631e4fbdf760e01b81525f600482015260240160405180910390fd5b6100648161011e565b50600180546001600160a01b038087166001600160a01b03199283161790925560028054928616929091169190911790556008829055600981905560405181907f30644e72e131a029b85045b68181585d2833e84879b9709143e1f593f0000001906100cf9061016d565b9182526020820152604001604051809103905ff0801580156100f3573d5f5f3e3d5ffd5b50600a80546001600160a01b0319166001600160a01b0392909216919091179055506101d692505050565b5f80546001600160a01b038381166001600160a01b0319831681178455604051919092169283917f8be0079c531659141344cd1fd0a4f28419497f9722a3daafe3b4186f6b6457e09190a35050565b610600806114fd83390190565b6001600160a01b038116811461018e575f5ffd5b50565b5f5f5f5f608085870312156101a4575f5ffd5b84516101af8161017a565b60208601519094506101c08161017a565b6040860151606090960151949790965092505050565b61131a806101e35f395ff3fe608060405234801561000f575f5ffd5b5060043610610153575f3560e01c80639ecf9fc6116100bf578063ce1c241e11610079578063ce1c241e146102e3578063d8b1eefe146102ec578063f2fde38b146102f4578063fb33b6b414610307578063fc45581f1461030f578063fc4af5511461032e575f5ffd5b80639ecf9fc61461026a578063b73ee90b1461027d578063bee9e8ad146102a1578063c0e60208146102b4578063c7e40ab6146102c7578063c9e5518f146102d0575f5ffd5b806369e2be071161011057806369e2be071461020e5780636d0da3eb14610221578063715018a61461022a578063804786f1146102345780638da5cb5b1461024757806392e49aa014610257575f5ffd5b8063034cf04e146101575780631988d8771461017357806329db61f2146101a55780632bc4a6e7146101ae5780632f2fd57b146101c45780633131f1ce146101ef575b5f5ffd5b61016060095481565b6040519081526020015b60405180910390f35b610186610181366004611011565b610341565b604080516001600160a01b03909316835290151560208301520161016a565b61016060055481565b6101b6610374565b60405161016a929190611028565b6002546101d7906001600160a01b031681565b6040516001600160a01b03909116815260200161016a565b6101606101fd3660046110b3565b60046020525f908152604090205481565b61016061021c366004611011565b6104cc565b61016060035481565b6102326104eb565b005b610160610242366004611011565b6104fe565b5f546001600160a01b03166101d7565b6102326102653660046110e0565b61050d565b6001546101d7906001600160a01b031681565b60025461029190600160a01b900460ff1681565b604051901515815260200161016a565b6102326102af3660046110e0565b6105d0565b6101606102c2366004611011565b6106ee565b61016060075481565b6101606102de366004611011565b6106fd565b61016060085481565b61023261078a565b6102326103023660046110b3565b610848565b610291610882565b61016061031d3660046110b3565b600f6020525f908152604090205481565b61016061033c366004611011565b6108ec565b600e8181548110610350575f80fd5b5f918252602090912001546001600160a01b0381169150600160a01b900460ff1682565b600e54606090819067ffffffffffffffff81111561039457610394611152565b6040519080825280602002602001820160405280156103bd578160200160208202803683370190505b50600e5490925067ffffffffffffffff8111156103dc576103dc611152565b604051908082528060200260200182016040528015610405578160200160208202803683370190505b5090505f5b600e548110156104c757600e818154811061042757610427611166565b5f9182526020909120015483516001600160a01b039091169084908390811061045257610452611166565b60200260200101906001600160a01b031690816001600160a01b031681525050600e818154811061048557610485611166565b905f5260205f20015f0160149054906101000a900460ff168282815181106104af576104af611166565b9115156020928302919091019091015260010161040a565b509091565b600681815481106104db575f80fd5b5f91825260209091200154905081565b6104f36108fb565b6104fc5f610927565b565b600c81815481106104db575f80fd5b610518838383610976565b156105cb5760068054600181810183555f9283527ff652222313e28459528d920b65115c16c04f3efc82aaedc97be59f3f377c0d3f909101839055600780549192909161056690849061118e565b9091555050335f908152600f6020526040902054600e8054600191908390811061059257610592611166565b5f9182526020909120018054911515600160a01b0260ff60a01b19909216919091179055600754600554036105c9576105c961078a565b505b505050565b6105db838383610a77565b156105cb57335f908152600460205260408120829055600580546001929061060490849061118e565b9091555050604080518082019091523381525f60208201818152600e8054600181810183559190935292517fbb7b4a454dc3493923482f07822329ed19e8244eff582cc204f8554c3620c3fd909201805491511515600160a01b026001600160a81b03199092166001600160a01b03939093169290921717905560055461068b91906111a7565b335f818152600f6020908152604091829020939093556005548151928352928201929092527fd0d43ef28709157183dd781abc0449f405db8b4182b2f99c72eeaa9816ce04dc910160405180910390a1600854600554036105cb576105cb610b8d565b600b81815481106104db575f80fd5b5f600854600554101561073757600554600854604051634c7424ed60e11b8152600481019290925260248201526044015b60405180910390fd5b60085482106107675760085460405163d541385760e01b815261072e918491600401918252602082015260400190565b600d828154811061077a5761077a611166565b905f5260205f2001549050919050565b60015f5b60085481101561083b57600a54600680546001600160a01b039092169163805be31d918591859081106107c3576107c3611166565b5f918252602090912001546040516001600160e01b031960e085901b16815260048101929092526024820152604401602060405180830381865afa15801561080d573d5f5f3e3d5ffd5b505050506040513d601f19601f8201168201806040525081019061083191906111ba565b915060010161078e565b5061084581610f29565b50565b6108506108fb565b6001600160a01b03811661087957604051631e4fbdf760e01b81525f600482015260240161072e565b61084581610927565b5f60085460055410156108b757600554600854604051634c7424ed60e11b81526004810192909252602482015260440161072e565b600554600754146108db5760405163698a440760e01b815260040160405180910390fd5b50600254600160a01b900460ff1690565b600d81815481106104db575f80fd5b5f546001600160a01b031633146104fc5760405163118cdaa760e01b815233600482015260240161072e565b5f80546001600160a01b038381166001600160a01b0319831681178455604051919092169283917f8be0079c531659141344cd1fd0a4f28419497f9722a3daafe3b4186f6b6457e09190a35050565b5f6005546007541061099b5760405163beda529960e01b815260040160405180910390fd5b604080515f8082526020820192839052600254633a94343960e21b90935290916001600160a01b031663ea50d0e46109d8888886602481016111d1565b602060405180830381865afa1580156109f3573d5f5f3e3d5ffd5b505050506040513d601f19601f82011682018060405250810190610a179190611249565b905080610a395760405163dcd5e6cd60e01b815233600482015260240161072e565b60405181151581527f329f535c7a5fc722b1d9afbc9c9e751cc20360f8153125977bbd03a91b04480f9060200160405180910390a195945050505050565b5f60085460055410610aab5760055460085460405163c3c7242560e01b81526004810192909252602482015260440161072e565b604080515f8082526020820192839052600154633a94343960e21b90935290916001600160a01b031663ea50d0e4610ae8888886602481016111d1565b602060405180830381865afa158015610b03573d5f5f3e3d5ffd5b505050506040513d601f19601f82011682018060405250810190610b279190611249565b90508015610b695760405181151581527f505ad7e6904cb0d1b53ad7152f1363565892d77d6bbae25ae333559e9e5584869060200160405180910390a1610b84565b6040516360c1a2bb60e11b815233600482015260240161072e565b95945050505050565b60055460085414610bc057600754600554604051634c7424ed60e11b81526004810192909252602482015260440161072e565b5f600e5f81548110610bd457610bd4611166565b5f9182526020808320909101546001600160a01b031680835260049091526040822054600b805460018181018355919094527f0175b7a638427703f0dbe7bb9bbf987a2551717b34e79f33b5b1008d1fa01db9909301819055909250905b600e54811015610d32575f600e8281548110610c5057610c50611166565b5f9182526020808320909101546001600160a01b039081168084526004909252604090922054600a5491935091600b911663805be31d82610c926001886111a7565b81548110610ca257610ca2611166565b905f5260205f200154846040518363ffffffff1660e01b8152600401610cd2929190918252602082015260400190565b602060405180830381865afa158015610ced573d5f5f3e3d5ffd5b505050506040513d601f19601f82011682018060405250810190610d1191906111ba565b8154600181810184555f93845260209093200155929092019150610c329050565b505f5b600e54811015610e1157600e545f90600190610d529084906111a7565b610d5c91906111a7565b600a54600b8054929350600c926001600160a01b0390921691630366956e919085908110610d8c57610d8c611166565b905f5260205f2001546040518263ffffffff1660e01b8152600401610db391815260200190565b602060405180830381865afa158015610dce573d5f5f3e3d5ffd5b505050506040513d601f19601f82011682018060405250810190610df291906111ba565b8154600181810184555f93845260209093200155919091019050610d35565b505f5b600e54811015610eec57600a54600b8054600d926001600160a01b03169163805be31d9185908110610e4857610e48611166565b905f5260205f200154600c8581548110610e6457610e64611166565b905f5260205f2001546040518363ffffffff1660e01b8152600401610e93929190918252602082015260400190565b602060405180830381865afa158015610eae573d5f5f3e3d5ffd5b505050506040513d601f19601f82011682018060405250810190610ed291906111ba565b8154600181810184555f9384526020909320015501610e14565b507ffeca226021d6e60f7432aaad1bac7105185f26e93e170f2242d756de3d4ef95e600d604051610f1d9190611268565b60405180910390a15050565b60015f5b6008548111610ff757828203610f6d576003819055600854610f51906002906112ad565b6002805460ff60a01b191691909211600160a01b021790555050565b600a5460095460405163805be31d60e01b81526004810185905260248101919091526001600160a01b039091169063805be31d90604401602060405180830381865afa158015610fbf573d5f5f3e3d5ffd5b505050506040513d601f19601f82011682018060405250810190610fe391906111ba565b915080610fef816112cc565b915050610f2d565b5060405163647508e560e11b815260040160405180910390fd5b5f60208284031215611021575f5ffd5b5035919050565b604080825283519082018190525f9060208501906060840190835b8181101561106a5783516001600160a01b0316835260209384019390920191600101611043565b5050838103602080860191909152855180835291810192508501905f5b818110156110a75782511515845260209384019390920191600101611087565b50919695505050505050565b5f602082840312156110c3575f5ffd5b81356001600160a01b03811681146110d9575f5ffd5b9392505050565b5f5f5f604084860312156110f2575f5ffd5b833567ffffffffffffffff811115611108575f5ffd5b8401601f81018613611118575f5ffd5b803567ffffffffffffffff81111561112e575f5ffd5b86602082840101111561113f575f5ffd5b6020918201979096509401359392505050565b634e487b7160e01b5f52604160045260245ffd5b634e487b7160e01b5f52603260045260245ffd5b634e487b7160e01b5f52601160045260245ffd5b808201808211156111a1576111a161117a565b92915050565b818103818111156111a1576111a161117a565b5f602082840312156111ca575f5ffd5b5051919050565b60408152826040820152828460608301375f606084830101525f601f19601f85011682016060810160608483030160208501528085518083526080840191506020870193505f92505b8083101561123d578351825260208201915060208401935060018301925061121a565b50979650505050505050565b5f60208284031215611259575f5ffd5b815180151581146110d9575f5ffd5b602080825282548282018190525f848152918220906040840190835b818110156112a2578354835260019384019360209093019201611284565b509095945050505050565b5f826112c757634e487b7160e01b5f52601260045260245ffd5b500490565b5f600182016112dd576112dd61117a565b506001019056fea2646970667358221220bd67717ffbe45fe22eda8a413e3992277ccba91122de8d8d799e3401b7b849e864736f6c634300081d003360c060405234801561000f575f5ffd5b5060405161060038038061060083398101604081905261002e916100de565b5f81116100825760405162461bcd60e51b815260206004820152601360248201527f4d6f64756c7573206d757374206265203e20300000000000000000000000000060448201526064015b60405180910390fd5b5f8211801561009057508082105b6100d05760405162461bcd60e51b815260206004820152601160248201527024b73b30b634b21033b2b732b930ba37b960791b6044820152606401610079565b60809190915260a052610100565b5f5f604083850312156100ef575f5ffd5b505080516020909101519092909150565b60805160a05161049a6101665f395f818161013901528181610168015281816101d701528181610204015281816102350152818161026001528181610290015281816102de0152818161031b0152818161035d015261039101525f60ec015261049a5ff3fe608060405234801561000f575f5ffd5b5060043610610085575f3560e01c80637afa1eed116100585780637afa1eed146100e7578063805be31d1461010e578063e01140b814610121578063ff4b040014610134575f5ffd5b80630366956e1461008957806341692bbb146100ae5780636eeb86dd146100c157806376f26c26146100d4575b5f5ffd5b61009c6100973660046103d4565b61015b565b60405190815260200160405180910390f35b61009c6100bc3660046103eb565b610201565b61009c6100cf3660046103eb565b61028d565b61009c6100e23660046103eb565b6102c6565b61009c7f000000000000000000000000000000000000000000000000000000000000000081565b61009c61011c3660046103eb565b6102db565b61009c61012f3660046103eb565b610314565b61009c7f000000000000000000000000000000000000000000000000000000000000000081565b5f811580159061018a57507f000000000000000000000000000000000000000000000000000000000000000082105b6101cc5760405162461bcd60e51b815260206004820152600f60248201526e496e76616c696420696e766572736560881b604482015260640160405180910390fd5b6101fb8261012f60027f000000000000000000000000000000000000000000000000000000000000000061040b565b92915050565b5f7f0000000000000000000000000000000000000000000000000000000000000000806102305761023061042a565b61025a7f00000000000000000000000000000000000000000000000000000000000000008461043e565b610284907f000000000000000000000000000000000000000000000000000000000000000061040b565b84089392505050565b5f7f0000000000000000000000000000000000000000000000000000000000000000806102bc576102bc61042a565b8284089392505050565b5f6102d48361011c8461015b565b9392505050565b5f7f00000000000000000000000000000000000000000000000000000000000000008061030a5761030a61042a565b8284099392505050565b60016103407f00000000000000000000000000000000000000000000000000000000000000008461043e565b92505b81156101fb5761035460028361043e565b60010361038f577f0000000000000000000000000000000000000000000000000000000000000000806103895761038961042a565b83820990505b7f0000000000000000000000000000000000000000000000000000000000000000806103bd576103bd61042a565b83840992506103cd600283610451565b9150610343565b5f602082840312156103e4575f5ffd5b5035919050565b5f5f604083850312156103fc575f5ffd5b50508035926020909101359150565b818103818111156101fb57634e487b7160e01b5f52601160045260245ffd5b634e487b7160e01b5f52601260045260245ffd5b5f8261044c5761044c61042a565b500690565b5f8261045f5761045f61042a565b50049056fea26469706673582212206cb9367f0533474d6a68226c528dca3b6b60f326fa32aaedd88c271155fdc3aa64736f6c634300081d0033a2646970667358221220185c396e15168a318edb3088aa0666e472f0cd5d93e8de80d91fed66bc1c51da64736f6c634300081d0033","linkReferences":{}},"methodIdentifiers":{"createVote(string,string,uint256)":"937cabed","defaultInscriptionVerifier()":"81b48bb3","defaultVotingVerifier()":"ecb9ece8","generator()":"7afa1eed","getById(uint256)":"f4f4d237","getMetadata(uint256)":"a574cea4","listVotes()":"db26c4f0","owner()":"8da5cb5b","renounceOwnership()":"715018a6","setDefaultVerifiers(address,address)":"457b3c53","totalVotes()":"0d15fd77","transferOwnership(address)":"f2fde38b"},"id":24}